{
	"contracts/demo/MyContract.sol": {
		"Selector": {
			"abi": [
				{
					"inputs": [],
					"name": "calculateSelector",
					"outputs": [
						{
							"internalType": "bytes4",
							"name": "",
							"type": "bytes4"
						},
						{
							"internalType": "bytes4",
							"name": "",
							"type": "bytes4"
						},
						{
							"internalType": "bytes4",
							"name": "",
							"type": "bytes4"
						}
					],
					"stateMutability": "nonpayable",
					"type": "function"
				}
			],
			"devdoc": {
				"kind": "dev",
				"methods": {},
				"version": 1
			},
			"evm": {
				"assembly": "    /* \"contracts/demo/MyContract.sol\":232:669  contract Selector {... */\n  mstore(0x40, 0x80)\n  callvalue\n  dup1\n  iszero\n  tag_1\n  jumpi\n  0x00\n  dup1\n  revert\ntag_1:\n  pop\n  dataSize(sub_0)\n  dup1\n  dataOffset(sub_0)\n  0x00\n  codecopy\n  0x00\n  return\nstop\n\nsub_0: assembly {\n        /* \"contracts/demo/MyContract.sol\":232:669  contract Selector {... */\n      mstore(0x40, 0x80)\n      callvalue\n      dup1\n      iszero\n      tag_1\n      jumpi\n      0x00\n      dup1\n      revert\n    tag_1:\n      pop\n      jumpi(tag_2, lt(calldatasize, 0x04))\n      shr(0xe0, calldataload(0x00))\n      dup1\n      0xbb71eb3b\n      eq\n      tag_3\n      jumpi\n    tag_2:\n      0x00\n      dup1\n      revert\n        /* \"contracts/demo/MyContract.sol\":257:667  function calculateSelector()... */\n    tag_3:\n      tag_4\n      tag_5\n      jump\t// in\n    tag_4:\n      mload(0x40)\n      tag_6\n      swap4\n      swap3\n      swap2\n      swap1\n      tag_7\n      jump\t// in\n    tag_6:\n      mload(0x40)\n      dup1\n      swap2\n      sub\n      swap1\n      return\n    tag_5:\n        /* \"contracts/demo/MyContract.sol\":331:337  bytes4 */\n      0x00\n        /* \"contracts/demo/MyContract.sol\":351:357  bytes4 */\n      dup1\n        /* \"contracts/demo/MyContract.sol\":371:377  bytes4 */\n      0x00\n        /* \"contracts/demo/MyContract.sol\":402:415  Solidity101 i */\n      dup1\n        /* \"contracts/demo/MyContract.sol\":426:436  bytes4 id1 */\n      0x00\n        /* \"contracts/demo/MyContract.sol\":439:468  type(Solidity101).interfaceId */\n      0xc6be8b5800000000000000000000000000000000000000000000000000000000\n        /* \"contracts/demo/MyContract.sol\":426:468  bytes4 id1 = type(Solidity101).interfaceId */\n      swap1\n      pop\n        /* \"contracts/demo/MyContract.sol\":478:488  bytes4 id2 */\n      0x00\n        /* \"contracts/demo/MyContract.sol\":510:526  i.world.selector */\n      shl(0xe0, 0xdf419679)\n        /* \"contracts/demo/MyContract.sol\":491:507  i.hello.selector */\n      shl(0xe0, 0x19ff1d21)\n        /* \"contracts/demo/MyContract.sol\":491:526  i.hello.selector ^ i.world.selector */\n      xor\n        /* \"contracts/demo/MyContract.sol\":478:526  bytes4 id2 = i.hello.selector ^ i.world.selector */\n      swap1\n      pop\n        /* \"contracts/demo/MyContract.sol\":537:547  bytes4 id3 */\n      0x00\n        /* \"contracts/demo/MyContract.sol\":600:626  keccak256(\"world(int256)\") */\n      0xdf4196793a4f7cfd36f9d8af121eb84e9dea986714d3deac5c3aa04971ef1048\n        /* \"contracts/demo/MyContract.sol\":557:577  keccak256(\"hello()\") */\n      0x19ff1d210e06a53ee50e5bad25fa509a6b00ed395695f7d9b82b68155d9e1065\n        /* \"contracts/demo/MyContract.sol\":550:627  bytes4(keccak256(\"hello()\")) ^... */\n      xor\n        /* \"contracts/demo/MyContract.sol\":537:627  bytes4 id3 = bytes4(keccak256(\"hello()\")) ^... */\n      swap1\n      pop\n        /* \"contracts/demo/MyContract.sol\":646:649  id1 */\n      dup3\n        /* \"contracts/demo/MyContract.sol\":651:654  id2 */\n      dup3\n        /* \"contracts/demo/MyContract.sol\":656:659  id3 */\n      dup3\n        /* \"contracts/demo/MyContract.sol\":638:660  return (id1, id2, id3) */\n      swap7\n      pop\n      swap7\n      pop\n      swap7\n      pop\n      pop\n      pop\n      pop\n      pop\n        /* \"contracts/demo/MyContract.sol\":257:667  function calculateSelector()... */\n      swap1\n      swap2\n      swap3\n      jump\t// out\n        /* \"#utility.yul\":7:156   */\n    tag_9:\n        /* \"#utility.yul\":43:50   */\n      0x00\n        /* \"#utility.yul\":83:149   */\n      0xffffffff00000000000000000000000000000000000000000000000000000000\n        /* \"#utility.yul\":76:81   */\n      dup3\n        /* \"#utility.yul\":72:150   */\n      and\n        /* \"#utility.yul\":61:150   */\n      swap1\n      pop\n        /* \"#utility.yul\":7:156   */\n      swap2\n      swap1\n      pop\n      jump\t// out\n        /* \"#utility.yul\":162:277   */\n    tag_10:\n        /* \"#utility.yul\":247:270   */\n      tag_14\n        /* \"#utility.yul\":264:269   */\n      dup2\n        /* \"#utility.yul\":247:270   */\n      tag_9\n      jump\t// in\n    tag_14:\n        /* \"#utility.yul\":242:245   */\n      dup3\n        /* \"#utility.yul\":235:271   */\n      mstore\n        /* \"#utility.yul\":162:277   */\n      pop\n      pop\n      jump\t// out\n        /* \"#utility.yul\":283:713   */\n    tag_7:\n        /* \"#utility.yul\":426:430   */\n      0x00\n        /* \"#utility.yul\":464:466   */\n      0x60\n        /* \"#utility.yul\":453:462   */\n      dup3\n        /* \"#utility.yul\":449:467   */\n      add\n        /* \"#utility.yul\":441:467   */\n      swap1\n      pop\n        /* \"#utility.yul\":477:546   */\n      tag_16\n        /* \"#utility.yul\":543:544   */\n      0x00\n        /* \"#utility.yul\":532:541   */\n      dup4\n        /* \"#utility.yul\":528:545   */\n      add\n        /* \"#utility.yul\":519:525   */\n      dup7\n        /* \"#utility.yul\":477:546   */\n      tag_10\n      jump\t// in\n    tag_16:\n        /* \"#utility.yul\":556:626   */\n      tag_17\n        /* \"#utility.yul\":622:624   */\n      0x20\n        /* \"#utility.yul\":611:620   */\n      dup4\n        /* \"#utility.yul\":607:625   */\n      add\n        /* \"#utility.yul\":598:604   */\n      dup6\n        /* \"#utility.yul\":556:626   */\n      tag_10\n      jump\t// in\n    tag_17:\n        /* \"#utility.yul\":636:706   */\n      tag_18\n        /* \"#utility.yul\":702:704   */\n      0x40\n        /* \"#utility.yul\":691:700   */\n      dup4\n        /* \"#utility.yul\":687:705   */\n      add\n        /* \"#utility.yul\":678:684   */\n      dup5\n        /* \"#utility.yul\":636:706   */\n      tag_10\n      jump\t// in\n    tag_18:\n        /* \"#utility.yul\":283:713   */\n      swap5\n      swap4\n      pop\n      pop\n      pop\n      pop\n      jump\t// out\n\n    auxdata: 0xa26469706673582212201d57a1cf9075bf0b517136952bf1c4e454cd158b2d06c77cc111aadff923f5c964736f6c63430008110033\n}\n",
				"bytecode": {
					"linkReferences": {},
					"object": "608060405234801561001057600080fd5b50610191806100206000396000f3fe608060405234801561001057600080fd5b506004361061002b5760003560e01c8063bb71eb3b14610030575b600080fd5b610038610050565b60405161004793929190610124565b60405180910390f35b60008060008060007fc6be8b58000000000000000000000000000000000000000000000000000000009050600063df41967960e01b6319ff1d2160e01b18905060007fdf4196793a4f7cfd36f9d8af121eb84e9dea986714d3deac5c3aa04971ef10487f19ff1d210e06a53ee50e5bad25fa509a6b00ed395695f7d9b82b68155d9e106518905082828296509650965050505050909192565b60007fffffffff0000000000000000000000000000000000000000000000000000000082169050919050565b61011e816100e9565b82525050565b60006060820190506101396000830186610115565b6101466020830185610115565b6101536040830184610115565b94935050505056fea26469706673582212201d57a1cf9075bf0b517136952bf1c4e454cd158b2d06c77cc111aadff923f5c964736f6c63430008110033",
					"opcodes": "PUSH1 0x80 PUSH1 0x40 MSTORE CALLVALUE DUP1 ISZERO PUSH2 0x10 JUMPI PUSH1 0x0 DUP1 REVERT JUMPDEST POP PUSH2 0x191 DUP1 PUSH2 0x20 PUSH1 0x0 CODECOPY PUSH1 0x0 RETURN INVALID PUSH1 0x80 PUSH1 0x40 MSTORE CALLVALUE DUP1 ISZERO PUSH2 0x10 JUMPI PUSH1 0x0 DUP1 REVERT JUMPDEST POP PUSH1 0x4 CALLDATASIZE LT PUSH2 0x2B JUMPI PUSH1 0x0 CALLDATALOAD PUSH1 0xE0 SHR DUP1 PUSH4 0xBB71EB3B EQ PUSH2 0x30 JUMPI JUMPDEST PUSH1 0x0 DUP1 REVERT JUMPDEST PUSH2 0x38 PUSH2 0x50 JUMP JUMPDEST PUSH1 0x40 MLOAD PUSH2 0x47 SWAP4 SWAP3 SWAP2 SWAP1 PUSH2 0x124 JUMP JUMPDEST PUSH1 0x40 MLOAD DUP1 SWAP2 SUB SWAP1 RETURN JUMPDEST PUSH1 0x0 DUP1 PUSH1 0x0 DUP1 PUSH1 0x0 PUSH32 0xC6BE8B5800000000000000000000000000000000000000000000000000000000 SWAP1 POP PUSH1 0x0 PUSH4 0xDF419679 PUSH1 0xE0 SHL PUSH4 0x19FF1D21 PUSH1 0xE0 SHL XOR SWAP1 POP PUSH1 0x0 PUSH32 0xDF4196793A4F7CFD36F9D8AF121EB84E9DEA986714D3DEAC5C3AA04971EF1048 PUSH32 0x19FF1D210E06A53EE50E5BAD25FA509A6B00ED395695F7D9B82B68155D9E1065 XOR SWAP1 POP DUP3 DUP3 DUP3 SWAP7 POP SWAP7 POP SWAP7 POP POP POP POP POP SWAP1 SWAP2 SWAP3 JUMP JUMPDEST PUSH1 0x0 PUSH32 0xFFFFFFFF00000000000000000000000000000000000000000000000000000000 DUP3 AND SWAP1 POP SWAP2 SWAP1 POP JUMP JUMPDEST PUSH2 0x11E DUP2 PUSH2 0xE9 JUMP JUMPDEST DUP3 MSTORE POP POP JUMP JUMPDEST PUSH1 0x0 PUSH1 0x60 DUP3 ADD SWAP1 POP PUSH2 0x139 PUSH1 0x0 DUP4 ADD DUP7 PUSH2 0x115 JUMP JUMPDEST PUSH2 0x146 PUSH1 0x20 DUP4 ADD DUP6 PUSH2 0x115 JUMP JUMPDEST PUSH2 0x153 PUSH1 0x40 DUP4 ADD DUP5 PUSH2 0x115 JUMP JUMPDEST SWAP5 SWAP4 POP POP POP POP JUMP INVALID LOG2 PUSH5 0x6970667358 0x22 SLT KECCAK256 SAR JUMPI LOG1 0xCF SWAP1 PUSH22 0xBF0B517136952BF1C4E454CD158B2D06C77CC111AADF 0xF9 0x23 CREATE2 0xC9 PUSH5 0x736F6C6343 STOP ADDMOD GT STOP CALLER "
				},
				"gasEstimates": {
					"creation": {
						"codeDepositCost": "80200",
						"executionCost": "129",
						"totalCost": "80329"
					},
					"external": {
						"calculateSelector()": "infinite"
					}
				},
				"methodIdentifiers": {
					"calculateSelector()": "bb71eb3b"
				}
			},
			"storageLayout": {
				"storage": [],
				"types": null
			},
			"userdoc": {
				"kind": "user",
				"methods": {},
				"version": 1
			}
		}
	}
}